:100000000C947D000C9487000C9487000C9487005E
:100010000C9487000C9487000C9487000C94870044
:100020000C9487000C9487000C9487000C94870034
:100030000C9487000C9487000C9487000C94870024
:100040000C9487000C9487000C9487000C94870014
:100050000C9487000C9487000C9487000C94870004
:100060000C9487000C948700DEC0D2C0DBC07F09EF
:1000700009010000417F410026494949327F0808B3
:10008000087F7F2018207F7E1111117E00417F4163
:100090000001017F0101264949493201017F010127
:1000A0007F0919294600417F41007F081422417FC2
:1000B000494949417F2018207F00417F41007F044A
:1000C00008107F3E5149453E00427F400042615149
:1000D00049462141454B311814127F1027454545AB
:1000E000393C4A49493001710905033649494936C5
:1000F000064949291E003636000011241FBECFEFE5
:10010000D8E0DEBFCDBF0E9415010C9498010C947D
:100110000000F999FECF81BD60BDFA9AF99A089561
:10012000F999FECF81BDF89A80B508953E3110F45B
:10013000889408950894089560E04AE0841718F0C0
:10014000841B6395FBCF082F862F602F089508E44A
:100150000093B80000E00093B900089504EA00930A
:10016000BC000091BC0007FFFCCF089504E9009398
:10017000BC0008951093BB0004E80093BC000091FC
:10018000BC0007FFFCCF08951F93E8DF18E7F2DFFC
:1001900010E0F0DF1F91EEDFE9DF0895D8DF1EEAFF
:1001A000F3DF1DE8F1DF14E1EFDF1FEAEDDF089573
:1001B0001F93D4DF18E7DEDF10E4DCDF1F91DADF06
:1001C000D5DF089588E060EB162FDEDF10E0DCDF7E
:1001D00010E1DADF90E810E0EBDF9A95E1F7639544
:1001E0008A9591F7089595E01591E2DF9A95E1F7E8
:1001F00010E0DEDF08950C9415015A9A5B9A02E034
:100200000093690001E000933D00549878940895AC
:100210000F930FB70F93213009F433950F910FBF50
:100220000F91189518950C9415010FEF0DBF08E06C
:100230000EBF209A289863D071D0B0DFC3DFDDDF16
:1002400020E0332720E03327289868D06FD0BADF2A
:1002500010EB9ADFE2E8F0E0C6DFC5DFC4DFC3DF02
:1002600011EB92DF80E05CDF67DF6F93882F03D0B4
:100270008F9101D011C0EF93FF938F939F93E3EC85
:10028000F0E095E0899FE00DF11D0024ACDF9F9127
:100290008F91FF91EF910895222309F013C04C9B99
:1002A000FBCF21E0289A8EDF10EB6EDFE6E9F0E06D
:1002B0009ADF99DF98DF97DF96DF95DF14EB29D07F
:1002C00033D0EACF332309F0289A30DF08F0E4CFA7
:1002D00025D02CD0289876DF10EB56DF10E054DFC5
:1002E00010E152DFE4EBF0E07EDF7DDF7CDF80E0D9
:1002F000632F0FDF80E49CE90197F1F7A3CF03E8B8
:100300000093440003E000934500569A579A559A8B
:1003100008955E9A5F9A10934700089500E0009355
:1003200047005F985E9808955D9A08955D980895D6
:04033000F894FFCF6F
:00000001FF
