:100000000C947D000C9487000C9487000C9487005E
:100010000C9487000C9487000C9487000C94870044
:100020000C9487000C9487000C9487000C94870034
:100030000C9487000C9487000C9487000C94870024
:100040000C9487000C9487000C9487000C94870014
:100050000C9487000C9487000C9487000C94870004
:100060000C9487000C94870008C1FCC005C17F096F
:1000700009010000417F410026494949327F0808B3
:10008000087F7F2018207F7E1111117E00417F4163
:100090000001017F0101264949493201017F010127
:1000A0007F0919294600417F41007F081422417FC2
:1000B000494949417F2018207F00417F41007F044A
:1000C00008107F3E5149453E00427F400042615149
:1000D00049462141454B311814127F1027454545AB
:1000E000393C4A49493001710905033649494936C5
:1000F000064949291E003636000011241FBECFEFE5
:10010000D8E0DEBFCDBF0E943F010C94C5010C9426
:100110000000F999FECF81BD60BDFA9AF99A089561
:10012000F999FECF81BDF89A80B508953E3110F45B
:10013000889408950894089560E04AE0841718F0C0
:10014000841B6395FBCF082F862F602F089508E44A
:100150000093B80000E00093B900089504EA00930A
:10016000BC000091BC0007FFFCCF089504E9009398
:10017000BC0008951093BB0004E80093BC000091FC
:10018000BC0007FFFCCF08951F93E8DF18E7F2DFFC
:1001900010E0F0DF1F91EEDFE9DF0895D8DF1EEAFF
:1001A000F3DF10E2F1DF12E0EFDF10EBEDDF10E044
:1001B000EBDF10E1E9DF10E4E7DF11EAE5DF18EC3F
:1001C000E3DF16EAE1DF18EADFDF1FE3DDDF13ED2F
:1001D000DBDF10E0D9DF11E8D7DF1FE7D5DF1DE84F
:1001E000D3DF14E1D1DF1FEACFDF08951F93B6DF1D
:1001F00018E7C0DF10E4BEDF1F91BCDFB7DF089552
:1002000088E060EB162FC0DF10E0BEDF10E1BCDF3E
:1002100090E810E0EBDF9A95E1F763958A9591F706
:10022000089595E01591E2DF9A95E1F710E0DEDFA1
:100230000895AADF062F0F70102FA6DF062F029554
:100240000F700061102FA0DF08950C943F015A9A9F
:100250005B9A02E00093690001E000933D0054982E
:10026000789408950F930FB70F93213009F43395C5
:100270000F910FBF0F91189518950C943F010FEF38
:100280000DBF08E00EBF209A289866D074D086DF94
:10029000B7DFDDDF20E0332720E0332728986BD05D
:1002A00072D0AEDF10EB60E0C4DFE2E8F0E0B9DF6F
:1002B000B8DFB7DFB6DF11EB60E0BBDF80E030DF37
:1002C0008F3108F0882738DF6F93882F03D08F9104
:1002D00001D011C0EF93FF938F939F93E3ECF0E075
:1002E00095E0899FE00DF11D11249BDF9F918F9177
:1002F000FF91EF910895222309F014C04C9BFBCF8E
:1003000021E0289A7DDF10EB60E093DFE6E9F0E082
:1003100088DF87DF86DF85DF84DF83DF14EB26D08D
:1003200030D0E9CF332309F0289A00DF08F0E3CF7B
:1003300022D029D0289864DF10EB60E07ADFE4EB6C
:10034000F0E06FDF6EDF6DDF80E0632FE2DE80E4E0
:100350009CE90197F1F7A0CF03E80093440003E084
:1003600000934500569A579A559A08955E9A5F9A57
:1003700010934700089500E0009347005F985E984F
:0E03800008955D9A08955D980895F894FFCF52
:00000001FF
