:100000000C94AA000C94B4000C94B4000C94B400AA
:100010000C94B4000C94B4000C94B4000C94B40090
:100020000C94B4000C94B4000C94B4000C94B40080
:100030000C94B4000C94B4000C94B4000C94B40070
:100040000C94B4000C94B4000C94B4000C94B40060
:100050000C94B4000C94B4000C94B4000C94B40050
:100060000C94B4000C94B4007F2018207F00417FD2
:1000700041007F0408107F7F0909010000417F4192
:100080000026494949327F0808087F7F2018207FD1
:100090007E1111117E00417F410001017F01012687
:1000A0004949493201017F01017F0919294600416F
:1000B0007F41007F081422417F4949494103047868
:1000C000040338444444383C4040207C7C08040409
:1000D00008000000000026494949323844444420C1
:1000E00038444444387C08040408385454541800F4
:1000F000363600003E5149453E00427F4000426195
:100100005149462141454B311814127F102745456E
:1001100045393C4A49493001710905033649494985
:1001200036064949291E7F4141221C00447D40007A
:100130004854545420043F44402020545454787C64
:100140000804047838444444203854545418003681
:100150003600000011241FBECFEFD8E0DEBFCDBFB8
:100160000E946B010C942F020C940000F999FECFB1
:1001700081BD60BDFA9AF99A0895F999FECF81BDC3
:10018000F89A80B508953B3028F0343628F48894E6
:10019000989408950894089518948894089545D1E2
:1001A0005AD1289873D010EB60E089D0E8E6F0E0EF
:1001B0007ED07DD07CD080EA96E80197F1F780EA86
:1001C00096E80197F1F7089530D145D15FD00895B1
:1001D00060E04AE0841718F0841B6395FBCF082F7A
:1001E000862F602F089508E40093B80000E0009384
:1001F000B900089504EA0093BC000091BC0007FF19
:10020000FCCF089504E90093BC0008951093BB004F
:1002100004E80093BC000091BC0007FFFCCF0895E8
:100220001F93E8DF18E7F2DF10E0F0DF1F91EEDF49
:10023000E9DF0895D8DF1EEAF3DF18EAF1DF1FE1F6
:10024000EFDF13EDEDDF10E0EBDF10E4E9DF1AED97
:10025000E7DF12E0E5DF11E8E3DF1FE7E1DF11EAA6
:10026000DFDF18ECDDDF16EADBDF1DE8D9DF14E1A4
:10027000D7DF1FEAD5DF08951F93BCDF18E7C6DF7D
:1002800010E4C4DF1F91C2DFBDDF089588E060EB9A
:10029000162FC6DF10E0C4DF10E1C2DF90E810E0E7
:1002A000EBDF9A95E1F763958A9591F7089595E0CC
:1002B0001591E2DF9A95E1F710E0DEDF0895B0DFF7
:1002C000062F0F70102FACDF062F02950F70006104
:1002D000102FA6DF08950FEF0DBF08E00EBF96D0D8
:1002E000A4D0A8DFD3DFA7D052985A9A20E03327B2
:1002F000552720E0332768DF10EB60E0E0DFEBE814
:10030000F0E0D5DFD4DFD3DFD2DF11EB60E0D7DF61
:10031000EDEBF0E0CCDFCBDFCADFC9DFC8DFC7DF42
:10032000C6DFC5DFC4DFC3DFC2DF80E026DF782F92
:100330008F3F09F488274CDF58D0862F56D02223D0
:10034000D9F100C009B10470051779F0502F0023CE
:1003500061F4355050F435E0832F90E04AE0349F4B
:1003600080ED97E0801991096ED080E99FE50197B3
:10037000F1F7339508DF80F1B1F110EB60E09FDF1A
:10038000EFE9F0E094DF93DF92DF91DF90DF8FDF22
:1003900012EB60E094DFE6E2F1E089DF88DF87DFDF
:1003A00086DF85DF84DF83DF82DF81DF832F10DF5D
:1003B0001CD0862F1AD0C3CF4C9BC1CF21E032E393
:1003C00065DFEFE9F0E073DF72DF71DF70DF6FDFB1
:1003D0006EDF26D038D0B3CFE2DE739580E0672F92
:1003E000C5DE019786CFF0DE84CFEF93FF938F9326
:1003F0009F93E4EFF0E095E0899FE00DF11D11245B
:1004000056DF9F918F91FF91EF91089503E800933C
:10041000440003E000934500569A579A559A089570
:100420005E9A5F9A10934700089500E0009347009A
:100430005F985E98089500E1009380000AE00093C1
:100440008100559A0895909389008093880000E177
:1004500000938000089500E0009380000895F894D0
:02046000FFCFCC
:00000001FF
