:100000000C94AA000C94B4000C94B4000C94B400AA
:100010000C94B4000C94B4000C94B4000C94B40090
:100020000C94B4000C94B4000C94B4000C94B40080
:100030000C94B4000C94B4000C94B4000C94B40070
:100040000C94B4000C94B4000C94B4000C94B40060
:100050000C94B4000C94B4000C94B4000C94B40050
:100060000C94B4000C94B4007F2018207F00417FD2
:1000700041007F0408107F7F0909010000417F4192
:100080000026494949327F0808087F7F2018207FD1
:100090007E1111117E00417F410001017F01012687
:1000A0004949493201017F01017F0919294600416F
:1000B0007F41007F081422417F4949494103047868
:1000C000040338444444383C4040207C7C08040409
:1000D00008000000000026494949323844444420C1
:1000E00038444444387C08040408385454541800F4
:1000F000363600003E5149453E00427F4000426195
:100100005149462141454B311814127F102745456E
:1001100045393C4A49493001710905033649494985
:1001200036064949291E7F4141221C00447D40007A
:100130004854545420043F44402020545454787C64
:100140000804047838444444203854545418003681
:100150003600000011241FBECFEFD8E0DEBFCDBFB8
:100160000E9471010C941B020C940000F999FECFBF
:1001700081BD60BDFA9AF99A0895F999FECF81BDC3
:10018000F89A80B508953B3028F0343628F48894E6
:10019000989408950894089518948894089541D1E6
:1001A00048D1289879D010EB60E08FD0E8E6F0E0F5
:1001B00084D083D082D080EA96E80197F1F780EA74
:1001C00096E80197F1F708952CD133D165D00895C1
:1001D00060E04AE0841718F0841B6395FBCF082F7A
:1001E000862F602F089508E40093B80000E0009384
:1001F000B900089504EA0093BC000091BC0007FF19
:10020000FCCF089504E90093BC0008951093BB004F
:1002100004E80093BC000091BC0007FFFCCF0895E8
:100220001F93E8DF18E7F2DF10E0F0DF1F91EEDF49
:10023000E9DF0895D8DF1EEAF3DF10E2F1DF12E014
:10024000EFDF10EBEDDF10E0EBDF10E1E9DF10E4B2
:10025000E7DF11EAE5DF18ECE3DF16EAE1DF18EA91
:10026000DFDF1FE3DDDF13EDDBDF10E0D9DF11E8B7
:10027000D7DF1FE7D5DF1DE8D3DF14E1D1DF1FEAA9
:10028000CFDF08951F93B6DF18E7C0DF10E4BEDFAD
:100290001F91BCDFB7DF089588E060EB162FC0DF49
:1002A00010E0BEDF10E1BCDF90E810E0EBDF9A95D4
:1002B000E1F763958A9591F7089595E01591E2DF4E
:1002C0009A95E1F710E0DEDF0895AADF062F0F70A0
:1002D000102FA6DF062F02950F700061102FA0DFF0
:1002E00008950FEF0DBF08E00EBF8CD09AD0A2DFAB
:1002F000D3DF52985A9A20E03327552720E033273E
:1003000063DF10EB60E0E1DFEBE8F0E0D6DFD5DFA4
:10031000D4DFD3DF11EB60E0D8DFEDEBF0E0CDDF31
:10032000CCDFCBDFCADFC9DFC8DFC7DFC6DFC5DF91
:10033000C4DFC3DF80E021DF782F8F3F09F48827F7
:1003400047DF4FD0862F4DD0222391F100C009B155
:100350000470051731F0502F002319F4355008F4BC
:1003600035E080E593EC0197F1F733950CDF80F1F0
:10037000B1F110EB60E0A9DFEFE9F0E09EDF9DDF77
:100380009CDF9BDF9ADF99DF12EB60E09EDFE6E205
:10039000F1E093DF92DF91DF90DF8FDF8EDF8DDF83
:1003A0008CDF8BDF832F14DF1CD0862F1AD0CCCFAD
:1003B0004C9BCACF21E032E36FDFEFE9F0E07DDF55
:1003C0007CDF7BDF7ADF79DF78DF26D030D0BCCFEF
:1003D000E6DE739580E0672FC9DE01978FCFF4DEEC
:1003E0008DCFEF93FF938F939F93E4EFF0E095E031
:1003F000899FE00DF11D112460DF9F918F91FF9186
:10040000EF91089503E80093440003E00093450052
:10041000569A579A559A08955E9A5F9A1093470094
:10042000089500E0009347005F985E9808955D9AF4
:0A04300008955D980895F894FFCF39
:00000001FF
